:100000000C942A000C9447000C9447000C94470071
:100010000C9447000C9447000C9447000C94470044
:100020000C9447000C9447000C9447000C94470034
:100030000C9447000C9447000C9447000C94470024
:100040000C9447000C9447000C9447000C94470014
:100050000C94470011241FBECFE5D8E0DEBFCDBF12
:1000600010E0A0E6B0E0ECE4F1E002C005900D92F3
:10007000A637B107D9F720E0A6E7B0E001C01D928E
:10008000AC37B207E1F70E946E000C94A4000C9408
:1000900000005D9BFECF8CB90895CF93C82F8A30A6
:1000A00019F48DE00E9449008C2F0E94490080E0E5
:1000B00090E0CF910895CF93DF93EC01899188234D
:1000C00019F00E944900FACFDF91CF91089590BDB9
:1000D00089B988E18AB986E880BD0895CF93DF9316
:1000E000CDB7DEB728970FB6F894DEBF0FBECDBFF1
:1000F00088E0EEE6F0E0DE01119601900D928A951F
:10010000E1F780E690E0909379008093780089E1B0
:1001100090E00E9467008FEF87BB88BB20E0822FB2
:1001200090E0019687709927282FE1E0F0E0EC0F2E
:10013000FD1FE80FF91F808188BB8FE09EE00197CB
:0C014000F1F700C00000EBCFF894FFCFF7
:10014C0000000002000000004D0000000000113310
:06015C00226644CC8899E4
:00000001FF
